:020000040800F2
:10000000000002205D3C0008AD3C0008AD3C00084B
:10001000AD3C0008AD3C0008AD3C0008000000000D
:10002000000000000000000000000000AD3C0008DF
:10003000AD3C000800000000AD3C0008AD3C0008ED
:10004000AD3C0008AD3C0008AD3C0008AD3C0008EC
:10005000AD3C0008AD3C0008AD3C0008AD3C0008DC
:10006000AD3C0008AD3C0008AD3C0008AD3C0008CC
:10007000AD3C0008AD3C0008AD3C0008AD3C0008BC
:10008000AD3C0008AD3C0008AD3C0008AD3C0008AC
:10009000AD3C0008AD3C0008AD3C0008AD3C00089C
:1000A000AD3C0008AD3C0008AD3C0008AD3C00088C
:1000B000AD3C0008AD3C0008AD3C0008AD3C00087C
:1000C000AD3C0008AD3C0008AD3C0008AD3C00086C
:1000D000AD3C0008AD3C0008AD3C0008AD3C00085C
:1000E000AD3C0008AD3C0008AD3C0008AD3C00084C
:1000F000AD3C0008AD3C0008AD3C0008AD3C00083C
:10010000AD3C0008AD3C0008AD3C0008AD3C00082B
:10011000AD3C0008AD3C0008AD3C0008AD3C00081B
:10012000AD3C0008AD3C0008AD3C0008AD3C00080B
:10013000AD3C0008AD3C0008AD3C0008AD3C0008FB
:10014000AD3C0008AD3C0008AD3C0008AD3C0008EB
:10015000AD3C0008AD3C0008AD3C0008AD3C0008DB
:10016000AD3C0008AD3C0008AD3C0008AD3C0008CB
:10017000AD3C0008AD3C0008AD3C0008AD3C0008BB
:08018000AD3C0008AD3C000895
:1001880010B5054C237833B9044B13B10448AFF3C9
:1001980000800123237010BD6004002000000000CF
:1001A800AC41000808B5064B1BB106480649AFF339
:1001B80000800648036813B1054B03B1984708BD92
:1001C80000000000AC410008640400205C0400202A
:1001D80000000000154B002B08BF134B9D46A3F5EC
:1001E800803A00218B460F461348144A121A03F02E
:1001F80093FD0F4B002B00D098470E4B002B00D0DF
:1002080098470020002104000D000D48002802D066
:100218000C4803F04DFE03F057FD2000290003F0C1
:10022800ADFC03F041FD00BF000008000000000025
:10023800000000000000000060040020840400208A
:10024800B93E0008C53E000870B5402082B00121C3
:1002580000F0FAFF01254FF40053002402266946F6
:100268000F4800938DF804508DF805608DF806400E
:100278008DF8074000F074F92846294600F0E4FF9D
:100288006946084800958DF804408DF805608DF89A
:1002980006408DF8076000F063F902B070BD00BF3A
:1002A8000018024000000240002882B04FF05B01B5
:1002B8000ADD019100E000BF019B5A1E002B01924C
:1002C800F9DC01380028F4DC02B07047FEE700BF13
:1002D800394A3A4BD2F88810394841F47001C2F8CB
:1002E80088101968002241F0010119609A601968A4
:1002F80021F0847121F4803119605860196882B046
:1003080021F480211960DA60009201921A6842F49F
:1003180080321A601A4603E0009BB3F5A06F09D03B
:10032800136803F400330193009B01330093019B8E
:10033800002BF1D0214B1B6813F4003318BF0123A5
:100348000193019B012B05D01B4B4FF000629A6073
:1003580002B07047194B1B4A186C1B4940F080507B
:100368001864106840F4804010609A689A609A682F
:1003780042F400429A609A6842F4A0529A60596026
:100388001A6842F080721A6019460B680B4A9B0182
:10039800FBD50E4B40F205611960936823F0030307
:1003A8009360936843F002039360936803F00C032F
:1003B800082BFAD1C8E700BF00ED00E00038024082
:1003C800103000240070004019544007003C0240DF
:1003D800154B9A6802F00C02042A23D0082A09D087
:1003E800124A1149124B8968C1F30311595CCA407A
:1003F8001A617047586859685B6842024CBF0D4AD9
:100408000A4A01F03F01C3F38813B2FBF1F202FB81
:1004180003F2054B5B68C3F3014301335B00B2FB96
:10042800F3F2DEE7034ADCE7003802400024F40078
:100438000800002000127A00DC41000800000020BB
:100448005C040020600400208404002008B5424BAE
:1004580098423BD003F58063984241D003F580630E
:10046800984247D003F5806398424DD003F58063E6
:10047800984221D003F5806398424FD003F58063FA
:10048800984255D003F5806398425BD003F58063AA
:10049800984205D031487B21BDE80840FFF716BFD8
:1004A8004FF48070012100F093FF4FF48070002119
:1004B800BDE8084000F08CBF1020012100F088FF43
:1004C80010200021BDE8084000F082BF012001464D
:1004D80000F07EFF01200021BDE8084000F078BF51
:1004E8000220012100F074FF02200021BDE808402D
:1004F80000F06EBF0420012100F06AFF04200021F3
:10050800BDE8084000F064BF0820012100F060FF4A
:1005180008200021BDE8084000F05ABF2020012132
:1005280000F056FF20200021BDE8084000F050BF31
:100538004020012100F04CFF40200021BDE8084088
:1005480000F046BF8020012100F042FF80200021FA
:10055800BDE8084000F03CBF000002409C3F000896
:100568002DE9F84F504B98420546884623D003F5AD
:10057800806398421FD003F5806398421BD003F52F
:100588008063984217D003F58063984213D003F52F
:10059800806398420FD003F5806398420BD003F52F
:1005A8008063984207D003F58063984203D03F48A0
:1005B800BB21FFF78BFED8F80030002B6ED098F8DF
:1005C8000430032B65D898F80730022B5CD8002636
:1005D80034464FF001094FF0030B04E00134102CAE
:1005E80006F1020627D0D8F8007009FA04F31F4074
:1005F8009F42F3D12A6898F804300BFA06FA6FEA9A
:100608000A0A0AEA02022A602A6803FA06F1013B8A
:100618000A43012B2A6010D9EA6898F807300AEAD9
:100628000202EA60EA68B34001341343102CEB601D
:1006380006F10206D7D1BDE8F88F98F80520032AFD
:100648001BD8A96898F8063018480AEA0101A96079
:10065800A968B2400A43012BAA6004D9D721FFF741
:1006680035FE98F806306A6822EA07076F606A68FC
:10067800A3409BB213436B60CEE70C48D021FFF731
:1006880025FE98F80520DCE70848BE21FFF71EFE86
:100698009DE70648BD21FFF719FE94E70348BC21F2
:1006A800FFF714FE8BE700BF000002409C3F0008E4
:1006B80000234FF6FF720260037143718371C371A7
:1006C800704700BF30B5214B83B04FF48032984259
:1006D80004460D46019224D003F58063984220D049
:1006E80003F5806398421CD003F58063984218D0C4
:1006F80003F58063984214D003F58063984210D0C4
:1007080003F5806398420CD003F58063984208D0C3
:1007180003F58063984204D00D484FF48271FFF7C7
:10072800D5FD25B90A4840F20511FFF7CFFD019B19
:100738002B430193019BE361E561019BE361E3695D
:100748000193E369019303B030BD00BF000002408C
:100758009C3F000838B52E4B984204460D4624D0DD
:1007680003F58063984220D003F5806398421CD03B
:1007780003F58063984218D003F58063984214D03B
:1007880003F58063984210D003F5806398420CD03B
:1007980003F58063984208D003F58063984204D03B
:1007A8001C484FF49871FFF791FD6B1E012B28D957
:1007B800042D26D0082D24D0102D22D0202D20D075
:1007C800402D1ED0802D1CD0B5F5807F19D0B5F5F1
:1007D800007F16D0B5F5806F13D0B5F5006F10D037
:1007E800B5F5805F0DD0B5F5005F0AD0B5F5804F3F
:1007F80007D0B5F5004F04D0064840F23111FFF795
:1008080065FD23691D420CBF0020012038BD00BFD3
:10081800000002409C3F0008164B984210B5044661
:1008280024D003F58063984220D003F58063984272
:100838001CD003F58063984218D003F58063984272
:1008480014D003F58063984210D003F58063984272
:100858000CD003F58063984208D003F58063984272
:1008680004D005484FF4A371FFF730FD206980B22A
:1008780010BD00BF000002409C3F000838B52E4B59
:10088800984204460D4624D003F58063984220D050
:1008980003F5806398421CD003F58063984218D012
:1008A80003F58063984214D003F58063984210D012
:1008B80003F5806398420CD003F58063984208D012
:1008C80003F58063984204D01C4840F25711FFF7A3
:1008D800FDFC6B1E012B28D9042D26D0082D24D011
:1008E800102D22D0202D20D0402D1ED0802D1CD0A0
:1008F800B5F5807F19D0B5F5007F16D0B5F5806FB6
:1009080013D0B5F5006F10D0B5F5805F0DD0B5F5F3
:10091800005F0AD0B5F5804F07D0B5F5004F04D079
:1009280006484FF4AC71FFF7D1FC63691D420CBF58
:100938000020012038BD00BF000002409C3F000895
:10094800164B984210B5044624D003F580639842AC
:1009580020D003F5806398421CD003F58063984249
:1009680018D003F58063984214D003F58063984249
:1009780010D003F5806398420CD003F58063984249
:1009880008D003F58063984204D0054840F26D1101
:10099800FFF79CFC606980B210BD00BF00000240F8
:1009A8009C3F000838B5194B984204460D4624D0A0
:1009B80003F58063984220D003F5806398421CD0E9
:1009C80003F58063984218D003F58063984214D0E9
:1009D80003F58063984210D003F5806398420CD0E9
:1009E80003F58063984208D003F58063984204D0E9
:1009F800074840F27F11FFF769FC25B904484FF416
:100A0800C071FFF763FC258338BD00BF00000240BA
:100A18009C3F000838B5194B984204460D4624D02F
:100A280003F58063984220D003F5806398421CD078
:100A380003F58063984218D003F58063984214D078
:100A480003F58063984210D003F5806398420CD078
:100A580003F58063984208D003F58063984204D078
:100A680007484FF4C971FFF731FC25B9044840F233
:100A78009311FFF72BFC658338BD00BF00000240CF
:100A88009C3F000830B5354B984283B004460D466C
:100A980026D003F58063984222D003F580639842FC
:100AA8001ED003F5806398421AD003F580639842FC
:100AB80016D003F58063984212D003F580639842FC
:100AC8000ED003F5806398420AD003F580639842FC
:100AD80006D0234801924FF4D371FFF7F7FB019A30
:100AE8006B1E012B2AD9042D28D0082D26D0102DB5
:100AF80024D0202D22D0402D20D0802D1ED0B5F519
:100B0800807F1BD0B5F5007F18D0B5F5806F15D064
:100B1800B5F5006F12D0B5F5805F0FD0B5F5005F61
:100B28000CD0B5F5804F09D0B5F5004F06D00C486C
:100B3800019240F2A711FFF7C9FB019A012A07D9D0
:100B480007484FF4D471FFF7C1FB258303B030BDCC
:100B5800002AFAD1658303B030BD00BF000002400F
:100B68009C3F000838B5164B984204460D4624D0E1
:100B780003F58063984220D003F5806398421CD027
:100B880003F58063984218D003F58063984214D027
:100B980003F58063984210D003F5806398420CD027
:100BA80003F58063984208D003F58063984204D027
:100BB800044840F2BD11FFF789FB656138BD00BFED
:100BC800000002409C3F000838B5174B9842044685
:100BD8000D4624D003F58063984220D003F5806346
:100BE80098421CD003F58063984218D003F58063BF
:100BF800984214D003F58063984210D003F58063BF
:100C080098420CD003F58063984208D003F58063BE
:100C1800984204D0054840F2CB11FFF757FB6369AF
:100C28005D40656138BD00BF000002409C3F000880
:100C3800274B984270B504460D46164624D003F556
:100C48008063984220D003F5806398421CD003F556
:100C58008063984218D003F58063984214D003F556
:100C68008063984210D003F5806398420CD003F556
:100C78008063984208D003F58063984204D01548F1
:100C880040F21721FFF722FB0F2D1AD80D2E06D997
:100C98000F2E04D00F4840F21921FFF717FBEB087D
:100CA80004EB830405F00705226AAD000F23AB406F
:100CB80022EA03032362236A06FA05F51D43256227
:100CC80070BD04484FF40671FFF700FBDEE700BF74
:100CD800000002409C3F00080A4B0B481A6800219C
:100CE80042F001021A6099601A6822F0847222F4B4
:100CF80080321A6058601A6822F480221A60D9601B
:100D0800704700BF0038024010300024012810B599
:100D1800044605D9052803D00448F021FFF7D6FA80
:100D2800034B00221A701C7010BD00BF044000085D
:100D3800023802401F2810B5044604D906484FF46B
:100D48009471FFF7C3FA054B1A6822F0F80242EAD9
:100D5800C4041C6010BD00BF0440000800380240F5
:100D6800012810B5044604D9034840F24B11FFF797
:100D7800ADFA024B1C6010BD044000080000474259
:100D8800012810B5044606D904280DD00B484FF4A5
:100D9800B271FFF79BFA0A4B0022012C1A701A70E5
:100DA8000AD0042C04D010BD054B00221A701A700A
:100DB800034B05221A7010BD1C7010BD04400008BA
:100DC80070380240012810B5044604D903484FF48E
:100DD800C671FFF77BFA024B1C6010BD0440000887
:100DE800800E47422DE9F0411C4630F48003064648
:100DF8000F469046069D04D01C4840F2B711FFF7F5
:100E080065FA3F2F2BD8A8F1C003F02B21D824F086
:100E18000403022B08D0042C06D0082C04D0134855
:100E28004FF4DD71FFF752FA2B1F0B2B04D90F4833
:100E380040F2BB11FFF74AFA47EA8817640847EA05
:100E48000565013C45EA0445094B2E435E60BDE853
:100E5800F081064840F2B911FFF738FAD7E703489E
:100E68004FF4DC71FFF732FACDE700BF0440000809
:100E780000380240012810B5044604D903484FF44D
:100E8800E771FFF723FA024B1C6010BD044000080D
:100E98006000474238B5A0F1C003F02B04460D4668
:100EA8000ED8AB1E052B04D9084840F2E911FFF70C
:100EB8000DFA2D07064B45EA8414C3F8844038BD63
:100EC80002484FF4F471FFF701FAEAE7044000081A
:100ED80000380240012810B5044604D9034840F2FE
:100EE800F711FFF7F3F9024B1C6010BD044000082E
:100EF80068004742012810B5044604D9034840F267
:100F08000921FFF7E3F9024B1C6010BD04400008FB
:100F18004C00474238B530F4C00305460C4604D0AF
:100F28000E484FF40971FFF7D1F934F080630CD003
:100F380024F00073B3F1A06F07D0B4F1C06F04D0F0
:100F4800064840F22521FFF7C1F9054B9A6822F0BF
:100F5800EC62144325439D6038BD00BF044000087F
:100F68000038024038B520F0404305460C4623B10E
:100F78000E4840F24A21FFF7A9F934F000530CD08B
:100F880024F08053B3F1205F07D0B4F1405F04D060
:100F9800064840F24B21FFF799F9054B9A6822F071
:100FA8007842144325439D6038BD00BF04400008C3
:100FB80000380240022810B5044604D905484FF409
:100FC8002D71FFF783F9044B9A6822F0030214434A
:100FD8009C6010BD0440000800380240024B98682D
:100FE80000F00C00704700BF0038024030F080036A
:100FF80010B5044612D020F02003902B0ED020F01C
:101008004003A02B0AD020F01003C02B06D0F028F4
:1010180004D0064840F2E921FFF758F9044B9A68D2
:1010280022F0F00214439C6010BD00BF0440000889
:101038000038024030F4805310B504460CD020F438
:101048000063B3F5A05F07D0B0F5C05F04D00648D1
:1010580040F20931FFF73AF9044B9A6822F4E0525A
:1010680014439C6010BD00BF0440000800380240D3
:1010780030F4805310B504460CD020F40063B3F567
:10108800A05F07D0B0F5C05F04D006484FF44A719E
:10109800FFF71CF9044B9A6822F4604242EAC40440
:1010A8009C6010BD04400008003802401F4A936845
:1010B80003F00C03042B10B41BD0082B1CD01C4BC2
:1010C80003601A491B4A8C68C4F30314145DE34097
:1010D80043608C68C4F38224145D23FA04F48460AA
:1010E80089685DF8044BC1F34231525CD340C36058
:1010F8007047114B0360E4E7546851685268630213
:101108004CBF0D4B0A4B01F03F01C2F38812B3FBF1
:10111800F1F303FB02F3054A5268C2F301420132BC
:101128005200B3FBF2F30360CBE700BF0038024084
:101138000024F4001C00002000127A00B0F5807F23
:1011480010B5044632D0B0F5007F2FD0204B20F4E4
:10115800A0229A4220F480312FD01E4B20F4102276
:101168009A422AD01C4A20F44033934225D002F5F3
:10117800C02220F4881090421FD002F5003293421A
:101188001BD002F58022934217D002F580229342A9
:1011980013D0124B994210D0114840F2D931FFF7C1
:1011A80095F804F44073B3F5407F06D00D4B1A6FE1
:1011B800C4F30B0414431C6710BD0A4A916824F059
:1011C800704321F4F81123F440730B439360EDE767
:1011D80000030200000304000003080000031C00D1
:1011E8000440000800380240012810B5044604D91C
:1011F800034840F2F731FFF769F8024B1C6010BD55
:10120800044000083C0E4742012810B5044604D9A2
:1012180003484FF48161FFF759F8024B1C6010BD79
:1012280004400008400E4742012810B5044604D97E
:10123800034840F21941FFF749F8024B1C6010BD02
:10124800044000085C01474238B5104B034004468F
:101258000D4663B958B1012D10D90D4840F24241ED
:10126800FFF734F80B4B1A6B14431C6338BD08485E
:101278004FF48861FFF72AF8012DEED8002DF1D13F
:10128800044B1A6B22EA04041C6338BD00EE8B8100
:10129800044000080038024038B530F0F103044635
:1012A8000D460CD158B1012D10D90C4840F26141BE
:1012B800FFF70CF80A4B5A6B14435C6338BD0748B8
:1012C8004FF48C61FFF702F8012DEED8002DF1D113
:1012D800034B5A6B22EA04045C6338BD04400008DF
:1012E8000038024038B530F0010304460D460CD1F1
:1012F80058B1012D10D90C4840F27C41FEF7E6FFA9
:101308000A4B9A6B14439C6338BD074840F27B41F3
:10131800FEF7DCFF012DEED8002DF1D1034B9A6BBF
:1013280022EA04049C6338BD0440000800380240E7
:1013380038B5104B034004460D4663B958B1012D2A
:1013480010D90D4840F2AE41FEF7C0FF0B4B1A6CA6
:1013580014431C6438BD084840F2AD41FEF7B6FF9F
:10136800012DEED8002DF1D1044B1A6C22EA0404A9
:101378001C6438BD003601C904400008003802402A
:1013880038B5104B034004460D4663B958B1012DDA
:1013980010D90D4840F2D641FEF798FF0B4B5A6C16
:1013A80014435C6438BD084840F2D541FEF78EFF0F
:1013B800012DEED8002DF1D1044B5A6C22EA040419
:1013C8005C6438BDCCA0F8FF044000080038024037
:1013D80038B5104B034004460D4663B958B1012D8A
:1013E80010D90D4840F2FD41FEF770FF0B4B1A690A
:1013F80014431C6138BD084840F2FC41FEF766FF03
:10140800012DEED8002DF1D1044B1A6922EA04040B
:101418001C6138BD00EE9FDD044000080038024022
:1014280038B530F0F10304460D460CD158B1012D02
:1014380010D90C4840F21A51FEF748FF0A4B5A6976
:1014480014435C6138BD074840F21951FEF73EFF6E
:10145800012DEED8002DF1D1034B5A6922EA04047C
:101468005C6138BD044000080038024038B530F0EF
:10147800010304460D460CD158B1012D10D90C4872
:1014880040F23251FEF722FF0A4B9A6914439C61DD
:1014980038BD074840F23151FEF718FF012DEED84C
:1014A800002DF1D1034B9A6922EA04049C6138BDEE
:1014B800044000080038024038B5104B0340044689
:1014C8000D4663B958B1012D10D90D4840F261514C
:1014D800FEF7FCFE0B4B1A6A14431C6238BD084821
:1014E8004FF4AC61FEF7F2FE012DEED8002DF1D1DC
:1014F800044B1A6A22EA04041C6238BD003601C98A
:10150800044000080038024038B5104B0340044638
:101518000D4663B958B1012D10D90D4840F28551D7
:10152800FEF7D4FE0B4B5A6A14435C6238BD084878
:1015380040F28451FEF7CAFE012DEED8002DF1D1FC
:10154800044B5A6A22EA04045C6238BDCCA6F8FF50
:10155800044000080038024038B5104B03400446E8
:101568000D4663B958B1012D10D90D4840F2B35159
:10157800FEF7ACFE0B4B1A6D14431C6538BD0848CA
:1015880040F2B251FEF7A2FE012DEED8002DF1D1A6
:10159800044B1A6D22EA04041C6538BD006E98815C
:1015A800044000080038024038B530F0F103044622
:1015B8000D460CD158B1012D10D90C4840F2D35129
:1015C800FEF784FE0A4B5A6D14435C6538BD074824
:1015D80040F2D251FEF77AFE012DEED8002DF1D15E
:1015E800034B5A6D22EA04045C6538BD04400008C8
:1015F8000038024038B530F0010304460D460CD1DE
:1016080058B1012D10D90C4840F2EE51FEF75EFE9C
:101618000A4B9A6D14439C6538BD074840F2ED515A
:10162800FEF754FE012DEED8002DF1D1034B9A6D33
:1016380022EA04049C6538BD0440000800380240D2
:1016480038B5104B034004460D4663B958B1012D17
:1016580010D90D484FF4C461FEF738FE0B4B1A6ED3
:1016680014431C6638BD084840F21F61FEF72EFE81
:10167800012DEED8002DF1D1044B1A6E22EA040494
:101688001C6638BD003601C9044000080038024015
:1016980038B5104B034004460D4663B958B1012DC7
:1016A80010D90D484FF4C961FEF710FE0B4B5A6E66
:1016B80014435C6638BD084840F24761FEF706FEF1
:1016C800012DEED8002DF1D1044B5A6E22EA040404
:1016D8005C6638BDCCA0F8FF044000080038024022
:1016E80010F0C00F38B504460D460CD158B1012D85
:1016F80010D90C4840F27561FEF7E8FD0A4B1A78DC
:1017080014431C7038BD074840F27461FEF7DEFDD3
:10171800012DEED8002DF1D1034B1A7822EA0404EA
:101728001C7038BD044000080D38024000F0EF037B
:10173800212B10B504461ED039281CD0412823D0AF
:1017480061280FD0A0F17903062B0BD93B2812D0C2
:10175800124840F29C61FEF7B9FD6309012B0AD0DB
:10176800022B11D00E4B5B6F04F01F0423FA04F018
:1017780000F0010010BD0A4B1B6804F01F0423FA97
:1017880004F000F0010010BD054B1B6F04F01F04AE
:1017980023FA04F000F0010010BD00BF0440000867
:1017A8000038024000B583B00023019300E048B937
:1017B8003120FFF7BBFF019B01330193019BB3F578
:1017C800A06FF4D13120FFF7B1FF003018BF01201E
:1017D80003B05DF804FB00BF024B5A6F42F0807201
:1017E8005A67704700380240431E012B10B5044663
:1017F8000ED904280CD008280AD0102808D0802830
:1018080006D0202804D0064840F2DA61FEF75EFDD3
:10181800044BDB681C420CBF0020012010BD00BF38
:101828000440000800380240430610B5044600D4BE
:1018380020B9044840F2F961FEF748FD024B1C70DC
:1018480010BD00BF044000080E38024008B54FF430
:1018580080700121FFF758FE4FF480700021BDE829
:101868000840FFF751BE00BF414B98422DE9F041B7
:1018780005460C460BD003F58073984207D003F554
:101888008073984203D03B48E921FEF71FFD236887
:1018980033F040715CD12379012B03D93548EB2112
:1018A800FEF714FD6379012B03D93248EC21FEF7CA
:1018B8000DFDA36833F040524FD1E36833F0407117
:1018C80023F080720ED022F00072B2F1806F09D03E
:1018D800B2F1006F06D0B2F1406F03D02548EE2177
:1018E800FEF7F4FC236933F4006203D02148EF21AA
:1018F800FEF7ECFC237D013B0F2B03D91D48F0219B
:10190800FEF7E4FC6A68216894F80480D4F80CC0F7
:101918002769A6686079184B22F0407222F4807219
:101928000A4342EA08226A60A9684CEA070232437D
:101938000B40134343EA4003AB60237DEA6A013B53
:10194800DBB222F4700242EA0353EB62BDE8F08195
:101958000848EA21FEF7BAFC9DE7ED210548FEF7A5
:10196800B5FCE36833F0407123F08072ABD1B9E77E
:10197800002001406C400008FDF7FFC00023012251
:1019880002750360037143718360C360036170472C
:101998000368022B70B504463AD8636833F44031C3
:1019A8002BD0264840F25311FEF790FCA16831F481
:1019B80040403DD1E36833F4407023F4807211D085
:1019C80022F40072B2F5806F0BD0B2F5006F08D028
:1019D800B2F5406F05D0194840F25511FEF776FC74
:1019E800E368A1681648174A456850CC34432A4032
:1019F80021430A431343436070BDA16831F4404258
:101A080016D1E36833F4407023F48072D8D1E8E744
:101A180023F01002511F0229BFD9092ABDD0113B5A
:101A2800012BBAD905484FF4A971FEF74FFCB4E76A
:101A380002484FF4AA71FEF749FCE2E76C4000083F
:101A480000230140E030FCFF002303604360836013
:101A5800C360704738B5124B984204460D460CD007
:101A680003F58073984208D003F58073984204D038
:101A78000C4840F28B11FEF729FC012D09D90948C1
:101A88004FF4C671FEF722FCA36843F00103A3607C
:101A980038BD002DF8D1A36823F00103A36038BD39
:101AA800002001406C40000838B5184B98420446A5
:101AB8000D460CD003F58073984208D003F5807367
:101AC800984204D012484FF4E371FEF7FFFB114B24
:101AD80025F400029A420AD025F40073B3F5000FEA
:101AE80005D0B5F5400F02D035F4800307D16368FF
:101AF80023F4400323F400731D43656038BD044894
:101B080040F2C711FEF7E2FBF1E700BF00200140F9
:101B18006C40000800024000134B984270B5044620
:101B28000D4616460CD003F58073984208D003F58D
:101B38008073984204D00D4840F2E311FEF7C6FBCB
:101B4800B5F5805F0AD2B6F5805F04D3074840F246
:101B5800E511FEF7BBFB6562A66270BD03484FF452
:101B6800F271FEF7B3FBEEE7002001406C4000087D
:101B780038B50F4B984204460D460CD003F58073D8
:101B8800984208D003F58073984204D009484FF46E
:101B98000371FEF79BFB122D04D9064840F20D2174
:101BA800FEF794FB636823F01F031D43656038BD8F
:101BB800002001406C400008012808B50AD90948EE
:101BC8004FF41371FEF782FB074B5A6842F4000288
:101BD8005A6008BD0028F7D1034B5A6822F4000266
:101BE8005A6008BD6C40000800230140012808B570
:101BF8000AD9094840F26221FEF768FB074B5A6888
:101C080042F480025A6008BD0028F7D1034B5A6895
:101C180022F480025A6008BD6C400008002301408D
:101C2800DFF8F8C060452DE9F04104460D46164638
:101C38001F460BD0374B984208D003F58073984263
:101C480004D035484FF43271FEF740FB122D5BD8B3
:101C580006F1FF385FFA88F30F2B4FD8072F47D8C4
:101C6800092D1CD9A5F10A0303EB4303E2680721F8
:101C780099409F4022EA01033B43062EE3601AD9AC
:101C88000C2E27D90D3E06EB8606E36A1F22B240CA
:101C9800B54023EA02062E43E662BDE8F08105EB73
:101CA80045032269072199409F4022EA01033B43EB
:101CB800062E2361E4D808EB8808636B1F2202FA1A
:101CC80008F205FA08F823EA020545EA08056563FB
:101CD800BDE8F081073E06EB8606236B1F22B24063
:101CE80005FA06F623EA020535432563BDE8F081C7
:101CF800094840F2CB21FEF7E9FAB1E7064840F27D
:101D0800CA21FEF7E3FAA9E7034840F2C921FEF722
:101D1800DDFA9DE7002101406C40000800200140E9
:101D28000B4B984210B504460CD003F580739842CB
:101D380008D003F58073984204D0064840F23F313A
:101D4800FEF7C4FAA36843F08043A36010BD00BF48
:101D5800002001406C4000080A4B984210B5044628
:101D68000CD003F58073984208D003F5807398422D
:101D780004D0054840F24E31FEF7A8FAA068C0F337
:101D8800805010BD002001406C40000838B5124B4F
:101D9800984204460D460CD003F58073984208D04B
:101DA80003F58073984204D00C4840F26B31FEF77B
:101DB8008DFA012D09D909484FF45B71FEF786FAAF
:101DC800A36843F48063A36038BD002DF8D1A368ED
:101DD80023F48063A36038BD002001406C400008F4
:101DE80038B5124B984204460D460CD003F5807363
:101DF800984208D003F58073984204D00C484FF4F9
:101E08006171FEF763FA012D09D9094840F285315D
:101E1800FEF75CFAA36843F00203A36038BD002D07
:101E2800F8D1A36823F00203A36038BD0020014065
:101E38006C40000838B5114B984204460D460CD04A
:101E480003F58073984208D003F58073984204D054
:101E58000B4840F2A131FEF739FA013DEBB2072BEE
:101E680004D9074840F2A231FEF730FA636823F438
:101E7800604343EA4535656038BD00BF0020014036
:101E88006C40000838B5124B984204460D460CD0F9
:101E980003F58073984208D003F58073984204D004
:101EA8000C4840F2BE31FEF711FA012D09D9094854
:101EB80040F2BF31FEF70AFA636843F400636360D7
:101EC80038BD002DF8D1636823F40063636038BD22
:101ED800002001406C4000080A4B984210B50446A7
:101EE8000CD003F58073984208D003F580739842AC
:101EF80004D0054840F2D531FEF7E8F9E06C80B22D
:101F080010BD00BF002001406C400008014B18685C
:101F1800704700BF0823014038B5124B9842044669
:101F28000D460CD003F58073984208D003F58073F2
:101F3800984204D00C4840F21B41FEF7C7F9012D26
:101F480009D9094840F21C41FEF7C0F9A36843F4D7
:101F58008073A36038BD002DF8D1A36823F4807383
:101F6800A36038BD002001406C40000838B5124B12
:101F7800984204460D460CD003F58073984208D069
:101F880003F58073984204D00C4840F23341FEF7C1
:101F98009DF9012D09D9094840F23441FEF796F917
:101FA800A36843F40073A36038BD002DF8D1A3687B
:101FB80023F40073A36038BD002001406C40000882
:101FC800012808B50AD9094840F24E41FEF77EF9C2
:101FD800074B5A6842F400525A6008BD0028F7D1EE
:101FE800034B5A6822F400525A6008BD6C4000083E
:101FF80000230140DFF8B4C06045F8B504460D463B
:1020080016461F460BD0274B984208D003F580731D
:10201800984204D0244840F2A641FEF757F9122D01
:1020280039D8731E032B30D8072F28D8092D19D873
:1020380005EB45032269072199409F4022EA0103E5
:102048003B432361A36B0236C3F30152B61AF6B2BF
:1020580006EB86061F22B240B54023EA02032B4353
:10206800A363F8BDA5F10A0303EB4303E268072164
:1020780099409F4022EA01033B43E360E2E70A48B4
:1020880040F2A941FEF722F9D0E707484FF49561DD
:10209800FEF71CF9C8E7044840F2A741FEF716F915
:1020A800BFE700BF002101406C400008002001404C
:1020B80038B5114B984204460D460CD003F5807391
:1020C800984208D003F58073984204D00B4840F238
:1020D800E641FEF7FBF8013DEBB2032B04D90748B4
:1020E80040F2E741FEF7F2F8A36B23F4401343EA0A
:1020F8000555A56338BD00BF002001406C400008AD
:1021080070B5194B044682B000209C420D46164615
:1021180001900CD003F580739C4208D003F58073BE
:102128009C4204D011484FF4A161FEF7CFF805F0A6
:10213800F703142B08D0182D06D0202D04D00B48F7
:1021480040F20951FEF7C2F8B6F5805F04D307489C
:1021580040F20A51FEF7BAF80194019B1D4401951B
:10216800019B1E6002B070BD002001406C40000859
:1021780038B5144B984204460D460CD003F58073CD
:10218800984208D003F58073984204D00E4840F274
:102198002E51FEF79BF835F440330DD0B3F5802F60
:1021A8000AD0B3F5002F07D0B3F5402F04D0064866
:1021B80040F22F51FEF78AF8A36823F470231D43D9
:1021C800A56038BD002001406C40000838B5104BB0
:1021D800984204460D460CD003F58073984208D007
:1021E80003F58073984204D00A484FF4AA61FEF7B9
:1021F8006DF835F4401304D0064840F25151FEF70B
:1022080065F8A36823F440131D43A56038BD00BFDB
:10221800002001406C4000080B4B984210B5044662
:102228000CD003F58073984208D003F58073984268
:1022380004D0064840F26451FEF748F8A36843F416
:102248008003A36010BD00BF002001406C4000085F
:102258000A4B984210B504460CD003F58073984297
:1022680008D003F58073984204D0054840F27251B3
:10227800FEF72CF8A068C0F3805010BD0020014084
:102288006C40000838B5124B984204460D460CD0F5
:1022980003F58073984208D003F58073984204D000
:1022A8000C4840F28E51FEF711F8012D09D9094862
:1022B80040F28F51FEF70AF8636843F48063636065
:1022C80038BD002DF8D1636823F48063636038BD9E
:1022D800002001406C40000838B5124B9842044673
:1022E8000D460CD003F58073984208D003F580732F
:1022F800984204D00C484FF4B561FDF7E7FF012D73
:1023080009D9094840F2A951FDF7E0FF636843F491
:102318008053636038BD002DF8D1636823F480537F
:10232800636038BD002001406C40000830B5164B92
:1023380083B00022984204460D4601920CD003F562
:102348008073984208D003F58073984204D00F48F0
:1023580040F2C651FDF7BAFF05F0F703142B08D079
:10236800182D06D0202D04D0084840F2C751FDF79B
:10237800ADFF0194019B28331D440195019B18680A
:1023880080B203B030BD00BF002001406C4000089F
:102398001D4B984270B504460D4616460CD003F501
:1023A8008073984208D003F58073984204D0174888
:1023B80040F23161FDF78AFF012E04D9134840F23B
:1023C8003261FDF783FF40F205239D420FD0B5F53A
:1023D800837F0CD040F207439D4208D042F21A0393
:1023E8009D4204D0094840F23361FDF76FFF012395
:1023F800EDB203FA05F563681EB923EA05056560C1
:1024080070BD1D43656070BD002001406C40000830
:1024180038B5144B984205460C460CD003F580732A
:10242800984208D003F58073984204D00E4840F2D1
:102438005661FDF74BFF631E012B0CD9042C0AD003
:10244800082C08D0102C06D0202C04D0064840F2C6
:102458005761FDF73BFF2B681C420CBF0020012091
:1024680038BD00BF002001406C40000838B50F4B54
:10247800984204460D460CD003F58073984208D064
:1024880003F58073984204D009484FF4CF61FDF7F3
:102498001DFF15F0C00F00D125B9054840F279613C
:1024A800FDF714FFED43256038BD00BF0020014053
:1024B8006C40000838B51A4B984205460C460CD0BB
:1024C80003F58073984208D003F58073984204D0CE
:1024D80014484FF4D261FDF7F9FE40F205239C42FF
:1024E8000FD0B4F5837F0CD040F207439C4208D04C
:1024F80042F21A039C4204D00A4840F29161FDF767
:10250800E5FE6B68286810EA142007D0E4B20122BF
:1025180002FA04F41C420CBF0020012038BD00BFA1
:10252800002001406C40000838B5154B984205461C
:102538000C460CD003F58073984208D003F58073DD
:10254800984204D00F4840F2B761FDF7BFFE40F251
:1025580005239C420FD0B4F5837F0CD040F207438B
:102568009C4208D042F21A039C4204D005484FF41A
:10257800D761FDF7ABFE6FEA14242C6038BD00BFAD
:10258800002001406C40000808B54FF000500121C0
:10259800FEF792FF4FF000500021BDE80840FEF71B
:1025A8008BBF00BF0B6833F0040270B50C460546BC
:1025B80011D023F010020C2A0DD023F02002142A87
:1025C80009D023F00802242A05D03C2B03D01C484C
:1025D800C621FDF77BFE636833F0400229D1A3686A
:1025E80033F4407309D0B3F5806F06D0B3F5006FAC
:1025F80003D01348C821FDF769FEE36833F00202EF
:1026080004D00F48C921FDF761FEE36894E8410052
:10261800A1680C4A46EA00040C43106840F6FE71B3
:10262800A940234303FA05F520EA01010D4315608B
:1026380070BD802BD3D00248C721FDF747FECEE7F7
:10264800D4400008007400400023036043608360A6
:10265800C360704738B530F0100304460D4604D007
:102668000F484FF48071FDF731FE012D0CD90C484D
:1026780040F20111FDF72AFE0A4B01211A6801FAFE
:1026880004F414431C6038BD002DF5D1054B01211D
:102698001A6801FA04F422EA04041C6038BD00BF79
:1026A800D44000080074004038B530F010030446E8
:1026B8000D4604D010484FF48E71FDF707FE012D2A
:1026C8000DD90D4840F21D11FDF700FE0B4B2409F2
:1026D8005A68012101FA04F414435C6038BD002DE6
:1026E800F4D1064B24095A68012101FA04F422EABC
:1026F80004045C6038BD00BFD4400008007400408A
:10270800012808B50AD909484FF49A71FDF7DEFD8A
:10271800074B5A6842F003025A6008BD0028F7D1F7
:10272800034B5A6822F003025A6008BDD4400008DF
:102738000074004030F0100370B505460C4616468C
:1027480004D0124840F25311FDF7C0FD402C06D0CA
:10275800802C04D00D484FF4AA71FDF7B7FD012E67
:102768000AD90A4840F25511FDF7B0FD084B1A681E
:10277800AC4014431C6070BD002EF7D1044B1A689E
:10278800AC4022EA04041C6070BD00BFD4400008BD
:102798000074004030B583B00023019330F0040387
:1027A80004460D4606D0082804D00C484FF4B971E9
:1027B800FDF78CFD4FF6F0739D4204D9074840F2AF
:1027C8007311FDF783FD064B0193019B08331C44ED
:1027D8000194019B1D6003B030BD00BFD4400008C8
:1027E8000074004030B583B00023019330F0040337
:1027F80004460D4606D0082804D00C4840F28B1138
:10280800FDF764FD4FF6F0739D4204D907484FF475
:10281800C671FDF75BFD064B0193019B14331C4405
:102828000194019B1D6003B030BD00BFD440000877
:102838000074004030F0040370B504460D46164697
:1028480006D0082804D0114840F2A711FDF73EFD34
:102858004FF6F0739E4212D84FF6F0739D4208D897
:10286800082C0B4B0CBF46EA052546EA0545E55002
:1028780070BD064840F2A911FDF728FDF0E70348AE
:102888004FF4D471FDF722FDE6E700BFD4400008FD
:102898002074004010B582B00023019330F010037B
:1028A800044604D0084840F2C911FDF70FFD074B54
:1028B8000193019B2C3303EB94040194019B18684A
:1028C80080B202B010BD00BFD440000800740040C0
:1028D80038B530F0100304460D4604D010484FF4C4
:1028E800FA71FDF7F3FC012D0DD90D4840F2F511F1
:1028F800FDF7ECFC0B4B4FF480511A6801FA04F415
:1029080014431C6038BD002DF4D1064B4FF48051A0
:102918001A6801FA04F422EA04041C6038BD00BFF6
:10292800D44000080074004030F0100370B504462D
:102938000D46164604D010484FF40971FDF7C6FC41
:10294800012E04D90C4840F22521FDF7BFFCB5F54E
:10295800005F04D0084840F22621FDF7B7FC074B7A
:1029680005FA04F41A681EB922EA04041C6070BD52
:1029780014431C6070BD00BFD440000800740040C0
:1029880038B530F0100304460D4604D00A4840F22A
:102998004521FDF79BFCB5F5005F04D0064840F2E1
:1029A8004621FDF793FC054B5B6B05FA04F41C42CA
:1029B8000CBF0020012038BDD4400008007400403E
:1029C80038B530F0100304460D4604D0084840F2EC
:1029D8006721FDF77BFCB5F5005F04D004484FF490
:1029E8001A71FDF773FC034B05FA04F45C6338BDF8
:1029F800D44000080074004038B530F01003044695
:102A08000D4604D00C4840F28121FDF75FFCB5F576
:102A1800005F04D0084840F28221FDF757FC074BBD
:102A28001A68586B05FA04F1084003D011420CBF2C
:102A38000020012038BD00BFD440000800740040C9
:102A480038B530F0100304460D4604D0084840F26B
:102A5800A621FDF73BFCB5F5005F04D0044840F221
:102A6800A721FDF733FC034B05FA04F45C6338BD7A
:102A7800D44000080074004038B5684B98420446BA
:102A880055D01833984262D01833984268D018331A
:102A980098426ED01833984239D01833984271D082
:102AA8001833984272D01833984200F0858003F5A5
:102AB8005673984200F08980183398426AD01833C8
:102AC800984200F085801833984200F093801833BC
:102AD800984200F098801833984200F09880183394
:102AE800984200F09880183398427AD0BF214C4819
:102AF800FDF7ECFB2168002321F001012122216070
:102B080023606360A360E3602361626138BD056888
:102B1800444A454925F0010500232120256023600A
:102B28006360A360E36023616061D16038BD0568BC
:102B38003C4A25F00105002321203D212560236022
:102B48006360A360E36023616061916038BD0568DC
:102B5800344A25F00105002321204FF47461EDE784
:102B68000568304A25F00105002321204FF474112F
:102B7800E4E705682B4A25F00105002321204FF0E2
:102B88007461DBE70568274A2849C3E70568254AD1
:102B98002749BFE7274B28491D68002225F0010572
:102BA80021244FF474601D601A605A609A60DA60DC
:102BB8001A615C61886038BD05681A4A25F001050C
:102BC800002321204FF03D51A8E705681A4AB0E7D5
:102BD8000568194A25F00105002321204FF47411D6
:102BE800ACE70568144A25F00105002321204FF0C1
:102BF8003D5193E70568104A25F00105002321207F
:102C08004FF074619AE705680B4A074982E705683F
:102C1800094A06497EE70568074AB9E71060024095
:102C28003C410008006002403D000020400F0020A9
:102C380000003D202864024000640240844B984212
:102C48002DE9F04780460C4632D0183398422FD0F1
:102C5800183398422CD01833984229D01833984208
:102C680026D01833984223D01833984220D01833EE
:102C780098421DD003F55673984219D018339842DC
:102C880016D01833984213D01833984210D01833FE
:102C980098420DD0183398420AD01833984207D07A
:102CA8001833984204D06B484FF49E71FDF70EFB21
:102CB800236833F0C06340F0B180E36833F040022A
:102CC80006D0802B04D063484FF49F71FDF7FEFABD
:102CD80023694FF6FE72013B934200F285806369D7
:102CE80033F4007240F08A80A36933F4806240F0C4
:102CF8008F80E36933F4006207D0B3F5805F04D0B6
:102D080054484FF4A171FDF7E1FA236A33F40052F5
:102D180007D0B3F5804F04D04E4840F24311FDF779
:102D2800D5FA636A33F4807204D04A484FF4A2712A
:102D3800FDF7CCFAA36A33F4403240F08380E36AAB
:102D480033F0040204D043484FF4A371FDF7BEFAF0
:102D5800236B032B42D8D4F834A03AF0C07367D160
:102D6800A06B30F4C00207D03A4840F24911FDF791
:102D7800ADFAA06BD4F834A0E36827686669A56942
:102D8800E169226AD4F82890D8F800C01F433E436E
:102D98003543636A304E676829430A431A4342EA57
:102DA800090949EA0A0A0CEA06064AEA060630430D
:102DB800236BE16A2569A468C8F80000D8F81420D4
:102DC8000B4322F007021343C8F81430C8F8045024
:102DD800C8F80870C8F80C40BDE8F0871D4840F2F4
:102DE8004711FDF773FAB6E71A4840F23F11FDF7AD
:102DF8006DFA636933F400723FF476AF15484FF407
:102E0800A071FDF763FAA36933F480623FF471AFF0
:102E1800104840F24111FDF759FA6AE7B3F1006F23
:102E28003FF44BAF0B4840F23D11FDF74FFA44E732
:102E380008484FF4A471FDF749FAA06B30F4C003B9
:102E480092D197E7034840F24511FDF73FFA76E73C
:102E5800106002403C4100083F801CF000230360E2
:102E680043608360C360036143618361C36103623C
:102E780043628362C362036343638363704700BF33
:102E880038B5254B984204460D4632D0183398423F
:102E98002FD0183398422CD01833984229D01833A1
:102EA800984226D01833984223D01833984220D01D
:102EB800183398421DD003F55673984219D0183329
:102EC800984216D01833984213D01833984210D02D
:102ED800183398420DD0183398420AD018339842C4
:102EE80007D01833984204D00C4840F2D911FDF7A6
:102EF800EDF9012D09D909484FF4ED71FDF7E6F90F
:102F0800236843F00103236038BD002DF8D12368FE
:102F180023F00103236038BD106002403C410008E3
:102F280038B5254B984204460D4632D0183398429E
:102F38002FD0183398422CD01833984229D0183300
:102F4800984226D01833984223D01833984220D07C
:102F5800183398421DD003F55673984219D0183388
:102F6800984216D01833984213D01833984210D08C
:102F7800183398420DD0183398420AD01833984223
:102F880007D01833984204D00C4840F2FD11FDF7E1
:102F98009DF965B1B5F5004F04D008484FF4FF71AD
:102FA800FDF794F9236843F40043236038BD236890
:102FB80023F40043236038BD106002403C41000800
:102FC80038B5254B984204460D4632D018339842FE
:102FD8002FD0183398422CD01833984229D0183360
:102FE800984226D01833984223D01833984220D0DC
:102FF800183398421DD003F55673984219D01833E8
:10300800984216D01833984213D01833984210D0EB
:10301800183398420DD0183398420AD01833984282
:1030280007D01833984204D00C4840F22121FDF70C
:103038004DF95DB1202D04D0084840F22221FDF75A
:1030480045F9236843F02003236038BD236823F043
:103058002003236038BD00BF106002403C410008D7
:1030680038B51D4B984204460D4632D01833984265
:103078002FD0183398422CD01833984229D01833BF
:10308800984226D01833984223D01833984220D03B
:10309800183398421DD003F55673984219D0183347
:1030A800984216D01833984213D01833984210D04B
:1030B800183398420DD0183398420AD018339842E2
:1030C80007D01833984204D0044840F27521FDF720
:1030D800FDF8656038BD00BF106002403C41000843
:1030E8001D4B984210B5044632D0183398422FD061
:1030F800183398422CD01833984229D01833984264
:1031080026D01833984223D01833984220D0183349
:1031180098421DD003F55673984219D01833984237
:1031280016D01833984213D01833984210D0183359
:1031380098420DD0183398420AD01833984207D0D5
:103148001833984204D005484FF42171FDF7BEF8B2
:10315800606880B210BD00BF106002403C410008AA
:1031680030B5294B984283B004460D4634D0183305
:10317800984231D0183398422ED0183398422BD029
:103188001833984228D01833984225D018339842DB
:1031980022D0183398421FD003F5567398421BD09B
:1031A8001833984218D01833984215D018339842DB
:1031B80012D0183398420FD0183398420CD01833D5
:1031C800984209D01833984206D01048019240F22C
:1031D800D221FDF77BF8019A72B1B2F5002F04D025
:1031E8000A4840F2D321FDF771F8236843F400231D
:1031F8002360256103B030BD236823F400232360D6
:10320800256103B030BD00BF106002403C4100089A
:1032180038B5254B984204460D4632D018339842AB
:103228002FD0183398422CD01833984229D018330D
:10323800984226D01833984223D01833984220D089
:10324800183398421DD003F55673984219D0183395
:10325800984216D01833984213D01833984210D099
:10326800183398420DD0183398420AD01833984230
:1032780007D01833984204D00C484FF43C71FDF73E
:1032880025F8012D09D9094840F2F121FDF71EF86A
:10329800236843F48023236038BD002DF8D12368C8
:1032A80023F48023236038BD106002403C410008AD
:1032B80030B5254B984283B004460D4634D01833B8
:1032C800984231D0183398422ED0183398422BD0D8
:1032D8001833984228D01833984225D0183398428A
:1032E80022D0183398421FD003F5567398421BD04A
:1032F8001833984218D01833984215D0183398428A
:1033080012D0183398420FD0183398420CD0183383
:10331800984209D01833984206D00C48019240F2DE
:103328001A31FCF7D3FF019A52B1B2F5002F04D03D
:10333800064840F21B31FCF7C9FF256103B030BDD8
:10334800E56003B030BD00BF106002403C4100089A
:103358001D4B984210B5044632D0183398422FD0EE
:10336800183398422CD01833984229D018339842F1
:1033780026D01833984223D01833984220D01833D7
:1033880098421DD003F55673984219D018339842C5
:1033980016D01833984213D01833984210D01833E7
:1033A80098420DD0183398420AD01833984207D063
:1033B8001833984204D0054840F23531FCF786FFAF
:1033C8002068C0F3C04010BD106002403C410008B6
:1033D8001D4B984210B5044632D0183398422FD06E
:1033E800183398422CD01833984229D01833984271
:1033F80026D01833984223D01833984220D0183357
:1034080098421DD003F55673984219D01833984244
:1034180016D01833984213D01833984210D0183366
:1034280098420DD0183398420AD01833984207D0E2
:103438001833984204D0054840F2A231FCF746FF01
:10344800206800F0010010BD106002403C410008F7
:103458001D4B984210B5044632D0183398422FD0ED
:10346800183398422CD01833984229D018339842F0
:1034780026D01833984223D01833984220D01833D6
:1034880098421DD003F55673984219D018339842C4
:1034980016D01833984213D01833984210D01833E6
:1034A80098420DD0183398420AD01833984207D062
:1034B8001833984204D005484FF47171FCF706FFA1
:1034C800606900F0380010BD106002403C410008FF
:1034D80038B56D4B984204460D4632D018339842A1
:1034E8002FD0183398422CD01833984229D018334B
:1034F800984226D01833984223D01833984220D0C7
:10350800183398421DD003F55673984219D01833D2
:10351800984216D01833984213D01833984210D0D6
:10352800183398420DD0183398420AD0183398426D
:1035380007D01833984204D0544840F2E131FCF7E0
:10354800C5FE534B9D4200F08A80103B9D4200F01F
:103558008680083B9D4200F082804E4B9D427ED083
:10356800033B9D427BD04C4B9D4278D0A3F58063B2
:103578009D4274D0A3F500739D4270D0A3F580736B
:103588009D426CD0C03B9D4269D0B5F1815F66D049
:10359800424B9D4263D0A3F500239D425FD0A3F523
:1035A80080239D425BD0A3F540339D4257D0B5F1AF
:1035B800C05F54D0B5F1A05F51D0B5F1905F4ED047
:1035C800B5F1885F4BD0B5F1825F48D0344B9D424E
:1035D80045D0103B9D4242D0083B9D423FD0043B22
:1035E8009D423CD0033B9D4239D003F2FF739D427C
:1035F80035D0A3F580639D4231D0A3F500739D4279
:103608002DD0A3F580739D4229D0C03B9D4226D082
:10361800244B9D4223D0A3F580139D421FD0A3F5D0
:1036280000239D421BD0A3F580239D4217D0A3F50C
:1036380040339D4213D0B5F1205F10D0B5F1105F33
:103648000DD0B5F1085F0AD0B5F1045F07D0B5F128
:10365800015F04D00D4840F2E231FCF737FE124B0F
:103668001249134A8C428CBF14461C46AB004CBF0F
:103678006368236825F0F02525F082151D420CBFEC
:103688000020012038BD00BF106002403C41000806
:103698002000001004008010000800100000101026
:1036A8002000002000002020006002400F6402403B
:1036B8000064024038B52C4B984204460D4632D07F
:1036C800183398422FD0183398422CD01833984288
:1036D80029D01833984226D01833984223D018336B
:1036E800984220D0183398421DD003F5567398425B
:1036F80019D01833984216D01833984213D018337B
:10370800984210D0183398420DD0183398420AD0F6
:103718001833984207D01833984204D0134840F21F
:103728002241FCF7D3FD05F04053B3F1405F00D0D0
:10373800ABB90E4840F22341FCF7C8FD0C490D4ACD
:103748000D4B8C428CBF14461C4615F0005F25F0CB
:10375800F02525F0821514BFE560A56038BD074B3C
:103768002B40002BEAD0E4E7106002403C410008FF
:103778000F640240006402400060024082F082C090
:10378800354B984270B504460D46164632D018336C
:1037980098422FD0183398422CD01833984229D009
:1037A8001833984226D01833984223D018339842B9
:1037B80020D0183398421DD003F55673984219D07B
:1037C8001833984216D01833984213D018339842B9
:1037D80010D0183398420DD0183398420AD01833B5
:1037E800984207D01833984204D01C4840F24F4101
:1037F800FCF76CFD35F09E0316D1ADB1012E04D94E
:10380800164840F25141FCF761FD2B0612D5636959
:10381800DEB143F08003802D636115D0236805F085
:103828001E051D43256070BD0C484FF48A61FCF7E6
:103838004DFDE3E7802D07D0002EEFD1236805F07A
:103848001E0523EA0505256070BD23F08003802D41
:103858006361F3D170BD00BF106002403C410008B5
:10386800764B984270B504460D4632D018339842CC
:103878002FD0183398422CD01833984229D01833B7
:10388800984226D01833984223D01833984220D033
:10389800183398421DD003F55673984219D018333F
:1038A800984216D01833984213D01833984210D043
:1038B800183398420DD0183398420AD018339842DA
:1038C80007D01833984204D05D4840F28741FCF78E
:1038D800FDFC5C4B9D4200F09180A3F58043103BBA
:1038E8009D4200F08B80A3F50053083B9D4200F0F9
:1038F8008580554B9D4200F08180544B9D427DD080
:10390800534B9D427AD0A3F588439D4276D0A3F5C8
:1039180008539D4272D0A3F588539D426ED04D4BFB
:103928009D426BD04C4B9D4268D0A3F582139D42BB
:1039380064D0A3F502239D4260D0A3F582239D4263
:103948005CD0464B9D4259D0454B9D4256D0454B85
:103958009D4253D0444B9D4250D0444B9D424DD044
:10396800434B9D424AD0434B9D4247D0A3F58043E9
:10397800103B9D4242D0404B9D423FD0A3F580531F
:10398800043B9D423AD03D4B9D4237D03C4B9D4233
:1039980034D0A3F588439D4230D0A3F508539D4207
:1039A8002CD0A3F588539D4228D0364B9D4225D074
:1039B800354B9D4222D0A3F582139D421ED0A3F51C
:1039C80002239D421AD0A3F582239D4216D02F4B85
:1039D8009D4213D02E4B9D4210D02E4B9D420DD0B0
:1039E8002D4B9D420AD02D4B9D4207D02C4B9D421A
:1039F80004D013484FF49161FCF768FC294E2A4A19
:103A08002A4925F0F02020F0C313B44298BF0A4693
:103A180083B1216801F01E0101EAD521AB004CBF3A
:103A28005368136820F08210184002D0081C18BF91
:103A3800012070BD616901F08001EFE7106002406C
:103A48003C41000820800010041000100100009084
:103A580000880010400000900080201000000190B5
:103A6800008000180040001400200012001000110F
:103A7800000040902080002008200020010000A0C5
:103A880000880020400000A000802020000001A045
:103A9800008000280040002400200022001000219F
:103AA800000040A00F640240006402400060024031
:103AB80038B52C4B984204460D4632D018339842FC
:103AC8002FD0183398422CD01833984229D0183365
:103AD800984226D01833984223D01833984220D0E1
:103AE800183398421DD003F55673984219D01833ED
:103AF800984216D01833984213D01833984210D0F1
:103B0800183398420DD0183398420AD01833984287
:103B180007D01833984204D0134840F2D741FCF735
:103B2800D5FB05F04053B3F1405F00D0ABB90E4868
:103B38004FF49B61FCF7CAFB0C490D4A0D4B8C42B4
:103B48008CBF14461C4615F0005F25F0F02525F0C3
:103B5800821514BFE560A56038BD074B2B40002BCC
:103B6800EAD0E4E7106002403C4100080F640240DC
:103B78000064024000600240820082402DE9F04F5C
:103B880085B0FCF761FB2F4A2F4B10681E682F4F3A
:103B98002F4D4FF4C0495B213C24C0F128084FF455
:103BA800804C4FF4005E3B69C246BAF1000F03F047
:103BB800010B0CDD019100E000BF019B5A1E002B98
:103BC8000192F9DC0AF1FF3ABAF1000FF2DCBBF11D
:103BD800000F20D08246BAF1000FA5F818C0A5F84A
:103BE8001AE00CDD029100E000BF029B5A1E002B78
:103BF8000292F9DC0AF1FF3ABAF1000FF2DCA5F8FB
:103C08001AC0A5F818E0013CCDD1282816D098B1E3
:103C1800A6B10130C0E7A5F81A908246BAF1000FA4
:103C2800F1DD039100E000BF039B5A1E002B0392B5
:103C3800F9DC0AF1FF3AF1E70126EAE70138002644
:103C4800AAE700BF7C040020040000200000024016
:103C580000180240002100F004B80D4B5B58435097
:103C680004310C480C4B42189A42FFF4F6AF0B4A49
:103C780000F003B8002342F8043B094B9A42FFF4D2
:103C8800F9AFFCF725FB00F01FF8FFF777FF704747
:103C9800DC410008000000205C04002060040020D3
:103CA80084040020FFF7FEBF08B50021044600F099
:103CB80087F8044B1868C36B03B19847204600F097
:103CC8007FFA00BFA841000870B50F4E0F4D761B54
:103CD800B61007D0043D0024013455F8043F984736
:103CE800A642F9D10A4E0B4D761B00F05DFAB610CC
:103CF80008D0043D0024013455F8043F9847A642F3
:103D0800F9D170BD70BD00BFD0410008D041000896
:103D1800D8410008D0410008F0B4840743D0541EAD
:103D2800002A3ED0CDB2034603E0621E002C38D0F4
:103D3800144603F8015B9A07F7D1032C2AD9CDB2B0
:103D480045EA05250F2C45EA054515D9A4F11007C4
:103D58003F0903F1100606EB07161A461560556071
:103D68009560D5601032B242F8D104F00F040137E3
:103D7800032C03EB07130DD91E462246043A032AE7
:103D880046F8045BFAD8221F22F0030204321344D7
:103D980004F003042CB1C9B21C4403F8011BA3426C
:103DA800FBD1F0BC704714460346C6E7024B13B17B
:103DB800024800F07DB8704700000000C53E0008CA
:103DC8002DE9F04F384B1B6885B003F5A4720193B9
:103DD80002900F460392019BD3F84881B8F1000F77
:103DE8001CD0DDF80CB04FF00109DA46D8F80430E1
:103DF8005C1E11D408F188059E1C05EB830508EBB1
:103E0800860677B1EB6FBB420BD0013C631CA5F172
:103E18000405A6F10406F4D1244A7ABB05B0BDE82E
:103E2800F08FD8F8042056F8043C013AA24216BF95
:103E38000022C8F8044046F8042C002BE5D0D8F836
:103E48008811D8F804B009FA04F20A4210D0D8F858
:103E58008C110A420ED1029855F8041C9847D8F8DC
:103E680004305B45B7D1DAF800304345CDD0B2E72E
:103E78009847F4E755F8040C9847F0E7D8F8043069
:103E88006BB9D8F8003063B14046CAF80030AFF3D8
:103E98000080DAF80080B8F1000FA7D1BEE7D8F8A3
:103EA8000030C2469846F6E7A84100080000000026
:103EB800014600200246034600F018B838B5094DFF
:103EC800094C641BA41018BF05EB840505D0013C00
:103ED80055F8043D9847002CF9D1BDE8384000F06A
:103EE80069B900BFD8410008DC410008F0B5274C8B
:103EF8002668D6F8484185B00746002C41D0656849
:103F08001F2D1EDD224818B94FF0FF3005B0F0BD57
:103F18004FF4C870039102920193AFF300800399A4
:103F2800029A019B04460028EED0D6F84851256035
:103F3800002060600546C6F84841C4F88801C4F806
:103F48008C013FB9AB1C00200135656044F8231093
:103F580005B0F0BD04EB85004FF0010CC0F88820D7
:103F6800D4F888610CFA05F21643022FC4F8886168
:103F7800C0F80831E6D1D4F88C311A43C4F88C2142
:103F8800E0E706F5A674C6F84841B8E7A841000876
:103F9800000000002E2E2F2E2E2F4C6962726172A7
:103FA8006965732F53544D333246342D4469736316
:103FB8006F766572795F46575F56312E312E302FF6
:103FC8004C69627261726965732F53544D3332467E
:103FD8003478785F5374645065726970685F4472AE
:103FE800697665722F7372632F73746D333266341A
:103FF80078785F6770696F2E630000002E2E2F2E71
:104008002E2F4C69627261726965732F53544D3358
:104018003246342D446973636F766572795F46570B
:104028005F56312E312E302F4C696272617269658C
:10403800732F53544D3332463478785F5374645039
:1040480065726970685F4472697665722F7372630E
:104058002F73746D3332663478785F7263632E63BE
:10406800000000002E2E2F2E2E2F4C6962726172D6
:104078006965732F53544D333246342D4469736345
:104088006F766572795F46575F56312E312E302F25
:104098004C69627261726965732F53544D333246AD
:1040A8003478785F5374645065726970685F4472DD
:1040B800697665722F7372632F73746D3332663449
:1040C80078785F6164632E63000000002E2E2F2E27
:1040D8002E2F4C69627261726965732F53544D3388
:1040E8003246342D446973636F766572795F46573B
:1040F8005F56312E312E302F4C69627261726965BC
:10410800732F53544D3332463478785F5374645068
:1041180065726970685F4472697665722F7372633D
:104128002F73746D3332663478785F6461632E63FD
:10413800000000002E2E2F2E2E2F4C696272617205
:104148006965732F53544D333246342D4469736374
:104158006F766572795F46575F56312E312E302F54
:104168004C69627261726965732F53544D333246DC
:104178003478785F5374645065726970685F44720C
:10418800697665722F7372632F73746D3332663478
:1041980078785F646D612E630000000043000000C2
:1041A8003000002000000000F8B500BFF8BC08BCD3
:1041B8009E467047F8B500BFF8BC08BC9E467047DD
:0841C80014C0FF7F010000009C
:0841D000B53D0008AD01000837
:0441D8008901000851
:1041DC0000000000010000000000000000000000D2
:1041EC0001020304060708090095BA0A0000000042
:1041FC000102030401020304060708090000000081
:10420C00000000001C03002084030020EC030020AD
:10421C000000000000000000000000000000000092
:10422C000000000000000000000000000000000082
:10423C0000000000A4410008000000000000000085
:10424C000000000000000000000000000000000062
:10425C000000000000000000000000000000000052
:10426C000000000000000000000000000000000042
:10427C000000000000000000000000000000000032
:10428C000000000000000000000000000000000022
:10429C000000000000000000000000000000000012
:1042AC000000000000000000010000000000000001
:1042BC000E33CDAB34126DE6ECDE05000B000000C6
:1042CC0000000000000000000000000000000000E2
:1042DC0000000000000000000000000000000000D2
:1042EC0000000000000000000000000000000000C2
:1042FC0000000000000000000000000000000000B2
:0C462C0000000000000000003000002032
:04463800000000007E
:0400000508003C5D56
:00000001FF
